{
    "_format": "hh-sol-artifact-1",
    "contractName": "ClassRegistration",
    "sourceName": "contracts/ClassRegistration.sol",
    "abi": [
        {
            "inputs": [],
            "stateMutability": "nonpayable",
            "type": "constructor"
        },
        {
            "inputs": [],
            "name": "admin",
            "outputs": [
                {
                    "internalType": "address",
                    "name": "",
                    "type": "address"
                }
            ],
            "stateMutability": "view",
            "type": "function"
        },
        {
            "inputs": [],
            "name": "getAllStudents",
            "outputs": [
                {
                    "components": [
                        {
                            "internalType": "uint256",
                            "name": "id",
                            "type": "uint256"
                        },
                        {
                            "internalType": "string",
                            "name": "name",
                            "type": "string"
                        }
                    ],
                    "internalType": "struct ClassRegistration.Student[]",
                    "name": "",
                    "type": "tuple[]"
                }
            ],
            "stateMutability": "view",
            "type": "function"
        },
        {
            "inputs": [
                {
                    "internalType": "uint256",
                    "name": "_id",
                    "type": "uint256"
                }
            ],
            "name": "getStudentById",
            "outputs": [
                {
                    "internalType": "string",
                    "name": "",
                    "type": "string"
                }
            ],
            "stateMutability": "view",
            "type": "function"
        },
        {
            "inputs": [
                {
                    "internalType": "uint256",
                    "name": "_id",
                    "type": "uint256"
                },
                {
                    "internalType": "string",
                    "name": "_name",
                    "type": "string"
                }
            ],
            "name": "registerStudent",
            "outputs": [],
            "stateMutability": "nonpayable",
            "type": "function"
        },
        {
            "inputs": [
                {
                    "internalType": "uint256",
                    "name": "_id",
                    "type": "uint256"
                }
            ],
            "name": "removeStudent",
            "outputs": [],
            "stateMutability": "nonpayable",
            "type": "function"
        }
    ],
    "bytecode": "0x608060405234801561001057600080fd5b50336000806101000a81548173ffffffffffffffffffffffffffffffffffffffff021916908373ffffffffffffffffffffffffffffffffffffffff160217905550610fc9806100606000396000f3fe608060405234801561001057600080fd5b50600436106100575760003560e01c80633f9586d41461005c5780636af8384514610078578063c8fb079314610094578063e9e30927146100c4578063f851a440146100e2575b600080fd5b6100766004803603810190610071919061099b565b610100565b005b610092600480360381019061008d9190610972565b610266565b005b6100ae60048036038101906100a99190610972565b6104e0565b6040516100bb9190610c68565b60405180910390f35b6100cc6105e2565b6040516100d99190610c46565b60405180910390f35b6100ea6107d4565b6040516100f79190610c2b565b60405180910390f35b60008054906101000a900473ffffffffffffffffffffffffffffffffffffffff1673ffffffffffffffffffffffffffffffffffffffff163373ffffffffffffffffffffffffffffffffffffffff161461018e576040517f08c379a000000000000000000000000000000000000000000000000000000000815260040161018590610cca565b60405180910390fd5b60006001600084815260200190815260200160002060000154146101e7576040517f08c379a00000000000000000000000000000000000000000000000000000000081526004016101de90610c8a565b60405180910390fd5b604051806040016040528083815260200182815250600160008481526020019081526020016000206000820151816000015560208201518160010190805190602001906102359291906107f8565b5090505060028290806001815401808255809150506001900390600052602060002001600090919091909150555050565b60008054906101000a900473ffffffffffffffffffffffffffffffffffffffff1673ffffffffffffffffffffffffffffffffffffffff163373ffffffffffffffffffffffffffffffffffffffff16146102f4576040517f08c379a00000000000000000000000000000000000000000000000000000000081526004016102eb90610cca565b60405180910390fd5b60006001600083815260200190815260200160002060000154141561034e576040517f08c379a000000000000000000000000000000000000000000000000000000000815260040161034590610caa565b60405180910390fd5b6001600082815260200190815260200160002060008082016000905560018201600061037a919061087e565b505060005b6002805490508110156104dc5781600282815481106103c7577f4e487b7100000000000000000000000000000000000000000000000000000000600052603260045260246000fd5b906000526020600020015414156104c957600260016002805490506103ec9190610db1565b81548110610423577f4e487b7100000000000000000000000000000000000000000000000000000000600052603260045260246000fd5b906000526020600020015460028281548110610468577f4e487b7100000000000000000000000000000000000000000000000000000000600052603260045260246000fd5b906000526020600020018190555060028054806104ae577f4e487b7100000000000000000000000000000000000000000000000000000000600052603160045260246000fd5b600190038181906000526020600020016000905590556104dc565b80806104d490610e95565b91505061037f565b5050565b606060006001600084815260200190815260200160002060000154141561053c576040517f08c379a000000000000000000000000000000000000000000000000000000000815260040161053390610caa565b60405180910390fd5b60016000838152602001908152602001600020600101805461055d90610e63565b80601f016020809104026020016040519081016040528092919081815260200182805461058990610e63565b80156105d65780601f106105ab576101008083540402835291602001916105d6565b820191906000526020600020905b8154815290600101906020018083116105b957829003601f168201915b50505050509050919050565b6060600060028054905067ffffffffffffffff81111561062b577f4e487b7100000000000000000000000000000000000000000000000000000000600052604160045260246000fd5b60405190808252806020026020018201604052801561066457816020015b6106516108be565b8152602001906001900390816106495790505b50905060005b6002805490508110156107cc5760016000600283815481106106b5577f4e487b7100000000000000000000000000000000000000000000000000000000600052603260045260246000fd5b90600052602060002001548152602001908152602001600020604051806040016040529081600082015481526020016001820180546106f390610e63565b80601f016020809104026020016040519081016040528092919081815260200182805461071f90610e63565b801561076c5780601f106107415761010080835404028352916020019161076c565b820191906000526020600020905b81548152906001019060200180831161074f57829003601f168201915b5050505050815250508282815181106107ae577f4e487b7100000000000000000000000000000000000000000000000000000000600052603260045260246000fd5b602002602001018190525080806107c490610e95565b91505061066a565b508091505090565b60008054906101000a900473ffffffffffffffffffffffffffffffffffffffff1681565b82805461080490610e63565b90600052602060002090601f016020900481019282610826576000855561086d565b82601f1061083f57805160ff191683800117855561086d565b8280016001018555821561086d579182015b8281111561086c578251825591602001919060010190610851565b5b50905061087a91906108d8565b5090565b50805461088a90610e63565b6000825580601f1061089c57506108bb565b601f0160209004906000526020600020908101906108ba91906108d8565b5b50565b604051806040016040528060008152602001606081525090565b5b808211156108f15760008160009055506001016108d9565b5090565b600061090861090384610d1b565b610cea565b90508281526020810184848401111561092057600080fd5b61092b848285610e21565b509392505050565b600082601f83011261094457600080fd5b81356109548482602086016108f5565b91505092915050565b60008135905061096c81610f7c565b92915050565b60006020828403121561098457600080fd5b60006109928482850161095d565b91505092915050565b600080604083850312156109ae57600080fd5b60006109bc8582860161095d565b925050602083013567ffffffffffffffff8111156109d957600080fd5b6109e585828601610933565b9150509250929050565b60006109fb8383610bdf565b905092915050565b610a0c81610de5565b82525050565b6000610a1d82610d5b565b610a278185610d7e565b935083602082028501610a3985610d4b565b8060005b85811015610a755784840389528151610a5685826109ef565b9450610a6183610d71565b925060208a01995050600181019050610a3d565b50829750879550505050505092915050565b6000610a9282610d66565b610a9c8185610d8f565b9350610aac818560208601610e30565b610ab581610f6b565b840191505092915050565b6000610acb82610d66565b610ad58185610da0565b9350610ae5818560208601610e30565b610aee81610f6b565b840191505092915050565b6000610b06601983610da0565b91507f53747564656e7420494420616c726561647920657869737473000000000000006000830152602082019050919050565b6000610b46601683610da0565b91507f53747564656e7420646f6573206e6f74206578697374000000000000000000006000830152602082019050919050565b6000610b86602283610da0565b91507f4f6e6c792061646d696e2063616e20706572666f726d2074686973206163746960008301527f6f6e0000000000000000000000000000000000000000000000000000000000006020830152604082019050919050565b6000604083016000830151610bf76000860182610c1c565b5060208301518482036020860152610c0f8282610a87565b9150508091505092915050565b610c2581610e17565b82525050565b6000602082019050610c406000830184610a03565b92915050565b60006020820190508181036000830152610c608184610a12565b905092915050565b60006020820190508181036000830152610c828184610ac0565b905092915050565b60006020820190508181036000830152610ca381610af9565b9050919050565b60006020820190508181036000830152610cc381610b39565b9050919050565b60006020820190508181036000830152610ce381610b79565b9050919050565b6000604051905081810181811067ffffffffffffffff82111715610d1157610d10610f3c565b5b8060405250919050565b600067ffffffffffffffff821115610d3657610d35610f3c565b5b601f19601f8301169050602081019050919050565b6000819050602082019050919050565b600081519050919050565b600081519050919050565b6000602082019050919050565b600082825260208201905092915050565b600082825260208201905092915050565b600082825260208201905092915050565b6000610dbc82610e17565b9150610dc783610e17565b925082821015610dda57610dd9610ede565b5b828203905092915050565b6000610df082610df7565b9050919050565b600073ffffffffffffffffffffffffffffffffffffffff82169050919050565b6000819050919050565b82818337600083830152505050565b60005b83811015610e4e578082015181840152602081019050610e33565b83811115610e5d576000848401525b50505050565b60006002820490506001821680610e7b57607f821691505b60208210811415610e8f57610e8e610f0d565b5b50919050565b6000610ea082610e17565b91507fffffffffffffffffffffffffffffffffffffffffffffffffffffffffffffffff821415610ed357610ed2610ede565b5b600182019050919050565b7f4e487b7100000000000000000000000000000000000000000000000000000000600052601160045260246000fd5b7f4e487b7100000000000000000000000000000000000000000000000000000000600052602260045260246000fd5b7f4e487b7100000000000000000000000000000000000000000000000000000000600052604160045260246000fd5b6000601f19601f8301169050919050565b610f8581610e17565b8114610f9057600080fd5b5056fea26469706673582212201ad2ee13a6d4de089ad302afd86f502a196f1f3fdd276dadcf48c580b8c0b76f64736f6c63430008000033",
    "linkReferences": {},
    "deployedLinkReferences": {}
}